{
  "contractName": "SkillCertificateRegistry",
  "abi": [
    {
      "anonymous": false,
      "inputs": [
        {
          "indexed": true,
          "internalType": "address",
          "name": "recipient",
          "type": "address"
        },
        {
          "indexed": false,
          "internalType": "string",
          "name": "name",
          "type": "string"
        },
        {
          "indexed": false,
          "internalType": "address",
          "name": "issuingAuthority",
          "type": "address"
        },
        {
          "indexed": false,
          "internalType": "uint256",
          "name": "issueDate",
          "type": "uint256"
        }
      ],
      "name": "certificateIssued",
      "type": "event"
    },
    {
      "inputs": [
        {
          "internalType": "address",
          "name": "",
          "type": "address"
        },
        {
          "internalType": "uint256",
          "name": "",
          "type": "uint256"
        }
      ],
      "name": "userCertification",
      "outputs": [
        {
          "internalType": "string",
          "name": "name",
          "type": "string"
        },
        {
          "internalType": "address",
          "name": "issuingAuthority",
          "type": "address"
        },
        {
          "internalType": "uint256",
          "name": "issueDate",
          "type": "uint256"
        }
      ],
      "stateMutability": "view",
      "type": "function",
      "constant": true
    },
    {
      "inputs": [
        {
          "internalType": "string",
          "name": "_name",
          "type": "string"
        },
        {
          "internalType": "address",
          "name": "_user",
          "type": "address"
        }
      ],
      "name": "issueCertification",
      "outputs": [],
      "stateMutability": "nonpayable",
      "type": "function"
    },
    {
      "inputs": [
        {
          "internalType": "address",
          "name": "_user",
          "type": "address"
        }
      ],
      "name": "getCertificates",
      "outputs": [
        {
          "components": [
            {
              "internalType": "string",
              "name": "name",
              "type": "string"
            },
            {
              "internalType": "address",
              "name": "issuingAuthority",
              "type": "address"
            },
            {
              "internalType": "uint256",
              "name": "issueDate",
              "type": "uint256"
            }
          ],
          "internalType": "struct SkillCertificateRegistry.Skill[]",
          "name": "",
          "type": "tuple[]"
        }
      ],
      "stateMutability": "view",
      "type": "function",
      "constant": true
    }
  ],
  "bytecode": "0x608060405234801561000f575f80fd5b50610c788061001d5f395ff3fe608060405234801561000f575f80fd5b506004361061003f575f3560e01c806385fbba9b14610043578063bd88d28e1461005f578063f1c49c6214610091575b5f80fd5b61005d60048036038101906100589190610621565b6100c1565b005b610079600480360381019061007491906106ae565b610210565b60405161008893929190610784565b60405180910390f35b6100ab60048036038101906100a691906107c0565b6102f4565b6040516100b89190610959565b60405180910390f35b5f808273ffffffffffffffffffffffffffffffffffffffff1673ffffffffffffffffffffffffffffffffffffffff1681526020019081526020015f2060405180606001604052808481526020013373ffffffffffffffffffffffffffffffffffffffff16815260200142815250908060018154018082558091505060019003905f5260205f2090600302015f909190919091505f820151815f0190816101679190610b73565b506020820151816001015f6101000a81548173ffffffffffffffffffffffffffffffffffffffff021916908373ffffffffffffffffffffffffffffffffffffffff1602179055506040820151816002015550508073ffffffffffffffffffffffffffffffffffffffff167fe76f5e2c1dcd06cdd26adc63be2f88e4f28403af8be674d22a0754868e4ad3c983334260405161020493929190610784565b60405180910390a25050565b5f602052815f5260405f208181548110610228575f80fd5b905f5260205f2090600302015f9150915050805f018054610248906109a6565b80601f0160208091040260200160405190810160405280929190818152602001828054610274906109a6565b80156102bf5780601f10610296576101008083540402835291602001916102bf565b820191905f5260205f20905b8154815290600101906020018083116102a257829003601f168201915b505050505090806001015f9054906101000a900473ffffffffffffffffffffffffffffffffffffffff16908060020154905083565b60605f808373ffffffffffffffffffffffffffffffffffffffff1673ffffffffffffffffffffffffffffffffffffffff1681526020019081526020015f20805480602002602001604051908101604052809291908181526020015f905b8282101561046f578382905f5260205f2090600302016040518060600160405290815f82018054610381906109a6565b80601f01602080910402602001604051908101604052809291908181526020018280546103ad906109a6565b80156103f85780601f106103cf576101008083540402835291602001916103f8565b820191905f5260205f20905b8154815290600101906020018083116103db57829003601f168201915b50505050508152602001600182015f9054906101000a900473ffffffffffffffffffffffffffffffffffffffff1673ffffffffffffffffffffffffffffffffffffffff1673ffffffffffffffffffffffffffffffffffffffff16815260200160028201548152505081526020019060010190610351565b505050509050919050565b5f604051905090565b5f80fd5b5f80fd5b5f80fd5b5f80fd5b5f601f19601f8301169050919050565b7f4e487b71000000000000000000000000000000000000000000000000000000005f52604160045260245ffd5b6104d982610493565b810181811067ffffffffffffffff821117156104f8576104f76104a3565b5b80604052505050565b5f61050a61047a565b905061051682826104d0565b919050565b5f67ffffffffffffffff821115610535576105346104a3565b5b61053e82610493565b9050602081019050919050565b828183375f83830152505050565b5f61056b6105668461051b565b610501565b9050828152602081018484840111156105875761058661048f565b5b61059284828561054b565b509392505050565b5f82601f8301126105ae576105ad61048b565b5b81356105be848260208601610559565b91505092915050565b5f73ffffffffffffffffffffffffffffffffffffffff82169050919050565b5f6105f0826105c7565b9050919050565b610600816105e6565b811461060a575f80fd5b50565b5f8135905061061b816105f7565b92915050565b5f806040838503121561063757610636610483565b5b5f83013567ffffffffffffffff81111561065457610653610487565b5b6106608582860161059a565b92505060206106718582860161060d565b9150509250929050565b5f819050919050565b61068d8161067b565b8114610697575f80fd5b50565b5f813590506106a881610684565b92915050565b5f80604083850312156106c4576106c3610483565b5b5f6106d18582860161060d565b92505060206106e28582860161069a565b9150509250929050565b5f81519050919050565b5f82825260208201905092915050565b5f5b83811015610723578082015181840152602081019050610708565b5f8484015250505050565b5f610738826106ec565b61074281856106f6565b9350610752818560208601610706565b61075b81610493565b840191505092915050565b61076f816105e6565b82525050565b61077e8161067b565b82525050565b5f6060820190508181035f83015261079c818661072e565b90506107ab6020830185610766565b6107b86040830184610775565b949350505050565b5f602082840312156107d5576107d4610483565b5b5f6107e28482850161060d565b91505092915050565b5f81519050919050565b5f82825260208201905092915050565b5f819050602082019050919050565b5f82825260208201905092915050565b5f61082e826106ec565b6108388185610814565b9350610848818560208601610706565b61085181610493565b840191505092915050565b610865816105e6565b82525050565b6108748161067b565b82525050565b5f606083015f8301518482035f8601526108948282610824565b91505060208301516108a9602086018261085c565b5060408301516108bc604086018261086b565b508091505092915050565b5f6108d2838361087a565b905092915050565b5f602082019050919050565b5f6108f0826107eb565b6108fa81856107f5565b93508360208202850161090c85610805565b805f5b85811015610947578484038952815161092885826108c7565b9450610933836108da565b925060208a0199505060018101905061090f565b50829750879550505050505092915050565b5f6020820190508181035f83015261097181846108e6565b905092915050565b7f4e487b71000000000000000000000000000000000000000000000000000000005f52602260045260245ffd5b5f60028204905060018216806109bd57607f821691505b6020821081036109d0576109cf610979565b5b50919050565b5f819050815f5260205f209050919050565b5f6020601f8301049050919050565b5f82821b905092915050565b5f60088302610a327fffffffffffffffffffffffffffffffffffffffffffffffffffffffffffffffff826109f7565b610a3c86836109f7565b95508019841693508086168417925050509392505050565b5f819050919050565b5f610a77610a72610a6d8461067b565b610a54565b61067b565b9050919050565b5f819050919050565b610a9083610a5d565b610aa4610a9c82610a7e565b848454610a03565b825550505050565b5f90565b610ab8610aac565b610ac3818484610a87565b505050565b5b81811015610ae657610adb5f82610ab0565b600181019050610ac9565b5050565b601f821115610b2b57610afc816109d6565b610b05846109e8565b81016020851015610b14578190505b610b28610b20856109e8565b830182610ac8565b50505b505050565b5f82821c905092915050565b5f610b4b5f1984600802610b30565b1980831691505092915050565b5f610b638383610b3c565b9150826002028217905092915050565b610b7c826106ec565b67ffffffffffffffff811115610b9557610b946104a3565b5b610b9f82546109a6565b610baa828285610aea565b5f60209050601f831160018114610bdb575f8415610bc9578287015190505b610bd38582610b58565b865550610c3a565b601f198416610be9866109d6565b5f5b82811015610c1057848901518255600182019150602085019450602081019050610beb565b86831015610c2d5784890151610c29601f891682610b3c565b8355505b6001600288020188555050505b50505050505056fea2646970667358221220065e75e8d30bdd868bcf11e7fbd01e016f1772a639f9066db02dfef38859b36d64736f6c63430008150033",
  "immutableReferences": {},
  "source": "// SPDX-License-Identifier: MIT\npragma solidity 0.8.21;\n\n/// @title SkillCertificateRegistry\n/// @author Chyle Andrei Lee\n/// @notice A registry of all certificate and it's infromation\ncontract SkillCertificateRegistry {\n    struct Skill {\n        string name;\n        address issuingAuthority;\n        uint256 issueDate;\n    }\n\n    mapping(address => Skill[]) public userCertification;\n\n    /// @notice Event when certificate has been issued\n    /// @dev Explain to a developer any extra details\n    /// @param recipient The receiver of the certificate\n    /// @param name The name of the certificate\n    /// @param issuingAuthority The issuer of the certificate\n    /// @param issueDate The date the certificate is issued\n    event certificateIssued(\n        address indexed recipient,\n        string name,\n        address issuingAuthority,\n        uint256 issueDate\n    );\n\n    /// @notice Issue a certificate\n    /// @param _name Name of the certificate\n    /// @param _user The person getting the certificate\n    function issueCertification(string memory _name, address _user) public {\n        userCertification[_user].push(\n            Skill({\n                name: _name,\n                issuingAuthority: msg.sender,\n                issueDate: block.timestamp\n            })\n        );\n\n        emit certificateIssued(_user, _name, msg.sender, block.timestamp);\n    }\n\n    function getCertificates(\n        address _user\n    ) public view returns (Skill[] memory) {\n        return userCertification[_user];\n    }\n}\n",
  "sourcePath": "/home/chyle/github/blockchain/contract/contracts/SkillCertificateRegistry.sol",
  "compiler": {
    "name": "solc",
    "version": "0.8.21+commit.d9974bed.Emscripten.clang"
  },
  "schemaVersion": "3.4.16",
  "updatedAt": "2024-12-20T15:38:30.849Z",
  "networkType": "ethereum",
  "devdoc": {
    "author": "Chyle Andrei Lee",
    "events": {
      "certificateIssued(address,string,address,uint256)": {
        "details": "Explain to a developer any extra details",
        "params": {
          "issueDate": "The date the certificate is issued",
          "issuingAuthority": "The issuer of the certificate",
          "name": "The name of the certificate",
          "recipient": "The receiver of the certificate"
        }
      }
    },
    "kind": "dev",
    "methods": {
      "issueCertification(string,address)": {
        "params": {
          "_name": "Name of the certificate",
          "_user": "The person getting the certificate"
        }
      }
    },
    "title": "SkillCertificateRegistry",
    "version": 1
  },
  "userdoc": {
    "events": {
      "certificateIssued(address,string,address,uint256)": {
        "notice": "Event when certificate has been issued"
      }
    },
    "kind": "user",
    "methods": {
      "issueCertification(string,address)": {
        "notice": "Issue a certificate"
      }
    },
    "notice": "A registry of all certificate and it's infromation",
    "version": 1
  }
}