{
  "contractName": "SkillCertificateRegistry",
  "abi": [
    {
      "anonymous": false,
      "inputs": [
        {
          "indexed": true,
          "internalType": "address",
          "name": "recipient",
          "type": "address"
        },
        {
          "indexed": false,
          "internalType": "string",
          "name": "name",
          "type": "string"
        },
        {
          "indexed": false,
          "internalType": "address",
          "name": "issuingAuthority",
          "type": "address"
        },
        {
          "indexed": false,
          "internalType": "uint256",
          "name": "issueDate",
          "type": "uint256"
        },
        {
          "indexed": false,
          "internalType": "bytes32",
          "name": "certificateId",
          "type": "bytes32"
        }
      ],
      "name": "certificateIssued",
      "type": "event"
    },
    {
      "inputs": [
        {
          "internalType": "bytes32",
          "name": "",
          "type": "bytes32"
        }
      ],
      "name": "certificateToUser",
      "outputs": [
        {
          "internalType": "address",
          "name": "",
          "type": "address"
        }
      ],
      "stateMutability": "view",
      "type": "function",
      "constant": true
    },
    {
      "inputs": [
        {
          "internalType": "address",
          "name": "",
          "type": "address"
        },
        {
          "internalType": "uint256",
          "name": "",
          "type": "uint256"
        }
      ],
      "name": "userCertification",
      "outputs": [
        {
          "internalType": "string",
          "name": "name",
          "type": "string"
        },
        {
          "internalType": "address",
          "name": "issuingAuthority",
          "type": "address"
        },
        {
          "internalType": "uint256",
          "name": "issueDate",
          "type": "uint256"
        },
        {
          "internalType": "bytes32",
          "name": "certificateId",
          "type": "bytes32"
        }
      ],
      "stateMutability": "view",
      "type": "function",
      "constant": true
    },
    {
      "inputs": [
        {
          "internalType": "string",
          "name": "_name",
          "type": "string"
        },
        {
          "internalType": "address",
          "name": "_user",
          "type": "address"
        }
      ],
      "name": "issueCertification",
      "outputs": [],
      "stateMutability": "nonpayable",
      "type": "function"
    },
    {
      "inputs": [
        {
          "internalType": "bytes32",
          "name": "_certificateId",
          "type": "bytes32"
        },
        {
          "internalType": "address",
          "name": "_owner",
          "type": "address"
        }
      ],
      "name": "verifyCertificate",
      "outputs": [
        {
          "internalType": "bool",
          "name": "",
          "type": "bool"
        }
      ],
      "stateMutability": "view",
      "type": "function",
      "constant": true
    },
    {
      "inputs": [
        {
          "internalType": "address",
          "name": "_user",
          "type": "address"
        }
      ],
      "name": "getCertificates",
      "outputs": [
        {
          "components": [
            {
              "internalType": "string",
              "name": "name",
              "type": "string"
            },
            {
              "internalType": "address",
              "name": "issuingAuthority",
              "type": "address"
            },
            {
              "internalType": "uint256",
              "name": "issueDate",
              "type": "uint256"
            },
            {
              "internalType": "bytes32",
              "name": "certificateId",
              "type": "bytes32"
            }
          ],
          "internalType": "struct SkillCertificateRegistry.Skill[]",
          "name": "",
          "type": "tuple[]"
        }
      ],
      "stateMutability": "view",
      "type": "function",
      "constant": true
    }
  ],
  "bytecode": "0x608060405234801561000f575f80fd5b506110258061001d5f395ff3fe608060405234801561000f575f80fd5b5060043610610055575f3560e01c806336fb1367146100595780634b432cc51461008957806385fbba9b146100b9578063bd88d28e146100d5578063f1c49c6214610108575b5f80fd5b610073600480360381019061006e919061066d565b610138565b60405161008091906106d7565b60405180910390f35b6100a3600480360381019061009e919061071a565b610168565b6040516100b09190610772565b60405180910390f35b6100d360048036038101906100ce91906108c7565b6101d0565b005b6100ef60048036038101906100ea9190610954565b6103af565b6040516100ff9493929190610a2a565b60405180910390f35b610122600480360381019061011d9190610a74565b610499565b60405161012f9190610c2f565b60405180910390f35b6001602052805f5260405f205f915054906101000a900473ffffffffffffffffffffffffffffffffffffffff1681565b5f8173ffffffffffffffffffffffffffffffffffffffff1660015f8581526020019081526020015f205f9054906101000a900473ffffffffffffffffffffffffffffffffffffffff1673ffffffffffffffffffffffffffffffffffffffff1614905092915050565b5f8233426040516020016101e693929190610cee565b6040516020818303038152906040528051906020012090505f808373ffffffffffffffffffffffffffffffffffffffff1673ffffffffffffffffffffffffffffffffffffffff1681526020019081526020015f2060405180608001604052808581526020013373ffffffffffffffffffffffffffffffffffffffff16815260200142815260200183815250908060018154018082558091505060019003905f5260205f2090600402015f909190919091505f820151815f0190816102aa9190610f20565b506020820151816001015f6101000a81548173ffffffffffffffffffffffffffffffffffffffff021916908373ffffffffffffffffffffffffffffffffffffffff160217905550604082015181600201556060820151816003015550508160015f8381526020019081526020015f205f6101000a81548173ffffffffffffffffffffffffffffffffffffffff021916908373ffffffffffffffffffffffffffffffffffffffff1602179055508173ffffffffffffffffffffffffffffffffffffffff167f9d66885ce492927fbd49951394e9505573ac890c39851c226b77d99afc6b194c843342856040516103a29493929190610a2a565b60405180910390a2505050565b5f602052815f5260405f2081815481106103c7575f80fd5b905f5260205f2090600402015f9150915050805f0180546103e790610d53565b80601f016020809104026020016040519081016040528092919081815260200182805461041390610d53565b801561045e5780601f106104355761010080835404028352916020019161045e565b820191905f5260205f20905b81548152906001019060200180831161044157829003601f168201915b505050505090806001015f9054906101000a900473ffffffffffffffffffffffffffffffffffffffff16908060020154908060030154905084565b60605f808373ffffffffffffffffffffffffffffffffffffffff1673ffffffffffffffffffffffffffffffffffffffff1681526020019081526020015f20805480602002602001604051908101604052809291908181526020015f905b8282101561061e578382905f5260205f2090600402016040518060800160405290815f8201805461052690610d53565b80601f016020809104026020016040519081016040528092919081815260200182805461055290610d53565b801561059d5780601f106105745761010080835404028352916020019161059d565b820191905f5260205f20905b81548152906001019060200180831161058057829003601f168201915b50505050508152602001600182015f9054906101000a900473ffffffffffffffffffffffffffffffffffffffff1673ffffffffffffffffffffffffffffffffffffffff1673ffffffffffffffffffffffffffffffffffffffff16815260200160028201548152602001600382015481525050815260200190600101906104f6565b505050509050919050565b5f604051905090565b5f80fd5b5f80fd5b5f819050919050565b61064c8161063a565b8114610656575f80fd5b50565b5f8135905061066781610643565b92915050565b5f6020828403121561068257610681610632565b5b5f61068f84828501610659565b91505092915050565b5f73ffffffffffffffffffffffffffffffffffffffff82169050919050565b5f6106c182610698565b9050919050565b6106d1816106b7565b82525050565b5f6020820190506106ea5f8301846106c8565b92915050565b6106f9816106b7565b8114610703575f80fd5b50565b5f81359050610714816106f0565b92915050565b5f80604083850312156107305761072f610632565b5b5f61073d85828601610659565b925050602061074e85828601610706565b9150509250929050565b5f8115159050919050565b61076c81610758565b82525050565b5f6020820190506107855f830184610763565b92915050565b5f80fd5b5f80fd5b5f601f19601f8301169050919050565b7f4e487b71000000000000000000000000000000000000000000000000000000005f52604160045260245ffd5b6107d982610793565b810181811067ffffffffffffffff821117156107f8576107f76107a3565b5b80604052505050565b5f61080a610629565b905061081682826107d0565b919050565b5f67ffffffffffffffff821115610835576108346107a3565b5b61083e82610793565b9050602081019050919050565b828183375f83830152505050565b5f61086b6108668461081b565b610801565b9050828152602081018484840111156108875761088661078f565b5b61089284828561084b565b509392505050565b5f82601f8301126108ae576108ad61078b565b5b81356108be848260208601610859565b91505092915050565b5f80604083850312156108dd576108dc610632565b5b5f83013567ffffffffffffffff8111156108fa576108f9610636565b5b6109068582860161089a565b925050602061091785828601610706565b9150509250929050565b5f819050919050565b61093381610921565b811461093d575f80fd5b50565b5f8135905061094e8161092a565b92915050565b5f806040838503121561096a57610969610632565b5b5f61097785828601610706565b925050602061098885828601610940565b9150509250929050565b5f81519050919050565b5f82825260208201905092915050565b5f5b838110156109c95780820151818401526020810190506109ae565b5f8484015250505050565b5f6109de82610992565b6109e8818561099c565b93506109f88185602086016109ac565b610a0181610793565b840191505092915050565b610a1581610921565b82525050565b610a248161063a565b82525050565b5f6080820190508181035f830152610a4281876109d4565b9050610a5160208301866106c8565b610a5e6040830185610a0c565b610a6b6060830184610a1b565b95945050505050565b5f60208284031215610a8957610a88610632565b5b5f610a9684828501610706565b91505092915050565b5f81519050919050565b5f82825260208201905092915050565b5f819050602082019050919050565b5f82825260208201905092915050565b5f610ae282610992565b610aec8185610ac8565b9350610afc8185602086016109ac565b610b0581610793565b840191505092915050565b610b19816106b7565b82525050565b610b2881610921565b82525050565b610b378161063a565b82525050565b5f608083015f8301518482035f860152610b578282610ad8565b9150506020830151610b6c6020860182610b10565b506040830151610b7f6040860182610b1f565b506060830151610b926060860182610b2e565b508091505092915050565b5f610ba88383610b3d565b905092915050565b5f602082019050919050565b5f610bc682610a9f565b610bd08185610aa9565b935083602082028501610be285610ab9565b805f5b85811015610c1d5784840389528151610bfe8582610b9d565b9450610c0983610bb0565b925060208a01995050600181019050610be5565b50829750879550505050505092915050565b5f6020820190508181035f830152610c478184610bbc565b905092915050565b5f81905092915050565b5f610c6382610992565b610c6d8185610c4f565b9350610c7d8185602086016109ac565b80840191505092915050565b5f8160601b9050919050565b5f610c9f82610c89565b9050919050565b5f610cb082610c95565b9050919050565b610cc8610cc3826106b7565b610ca6565b82525050565b5f819050919050565b610ce8610ce382610921565b610cce565b82525050565b5f610cf98286610c59565b9150610d058285610cb7565b601482019150610d158284610cd7565b602082019150819050949350505050565b7f4e487b71000000000000000000000000000000000000000000000000000000005f52602260045260245ffd5b5f6002820490506001821680610d6a57607f821691505b602082108103610d7d57610d7c610d26565b5b50919050565b5f819050815f5260205f209050919050565b5f6020601f8301049050919050565b5f82821b905092915050565b5f60088302610ddf7fffffffffffffffffffffffffffffffffffffffffffffffffffffffffffffffff82610da4565b610de98683610da4565b95508019841693508086168417925050509392505050565b5f819050919050565b5f610e24610e1f610e1a84610921565b610e01565b610921565b9050919050565b5f819050919050565b610e3d83610e0a565b610e51610e4982610e2b565b848454610db0565b825550505050565b5f90565b610e65610e59565b610e70818484610e34565b505050565b5b81811015610e9357610e885f82610e5d565b600181019050610e76565b5050565b601f821115610ed857610ea981610d83565b610eb284610d95565b81016020851015610ec1578190505b610ed5610ecd85610d95565b830182610e75565b50505b505050565b5f82821c905092915050565b5f610ef85f1984600802610edd565b1980831691505092915050565b5f610f108383610ee9565b9150826002028217905092915050565b610f2982610992565b67ffffffffffffffff811115610f4257610f416107a3565b5b610f4c8254610d53565b610f57828285610e97565b5f60209050601f831160018114610f88575f8415610f76578287015190505b610f808582610f05565b865550610fe7565b601f198416610f9686610d83565b5f5b82811015610fbd57848901518255600182019150602085019450602081019050610f98565b86831015610fda5784890151610fd6601f891682610ee9565b8355505b6001600288020188555050505b50505050505056fea264697066735822122084b4241b708e3481728a4f4da060db568f4402a867d73bc8bd9beb90dc3fc30864736f6c63430008150033",
  "immutableReferences": {},
  "source": "// SPDX-License-Identifier: MIT\npragma solidity 0.8.21;\n\n/// @title SkillCertificateRegistry\n/// @author Chyle Andrei Lee\n/// @notice A registry of all certificate and it's infromation\ncontract SkillCertificateRegistry {\n    struct Skill {\n        string name;\n        address issuingAuthority;\n        uint256 issueDate;\n        bytes32 certificateId;\n    }\n\n    mapping(address => Skill[]) public userCertification;\n    mapping(bytes32 => address) public certificateToUser;\n\n    /// @notice Event when certificate has been issued\n    /// @dev Explain to a developer any extra details\n    /// @param recipient The receiver of the certificate\n    /// @param name The name of the certificate\n    /// @param issuingAuthority The issuer of the certificate\n    /// @param issueDate The date the certificate is issued\n    event certificateIssued(\n        address indexed recipient,\n        string name,\n        address issuingAuthority,\n        uint256 issueDate,\n        bytes32 certificateId\n    );\n\n    /// @notice Issue a certificate\n    /// @param _name Name of the certificate\n    /// @param _user The person getting the certificate\n    function issueCertification(string memory _name, address _user) public {\n        bytes32 certificateHash = keccak256(\n            abi.encodePacked(_name, msg.sender, block.timestamp)\n        );\n\n        userCertification[_user].push(\n            Skill({\n                name: _name,\n                issuingAuthority: msg.sender,\n                issueDate: block.timestamp,\n                certificateId: certificateHash\n            })\n        );\n\n        certificateToUser[certificateHash] = _user;\n\n        emit certificateIssued(\n            _user,\n            _name,\n            msg.sender,\n            block.timestamp,\n            certificateHash\n        );\n    }\n\n    function verifyCertificate(\n        bytes32 _certificateId,\n        address _owner\n    ) public view returns (bool) {\n        return certificateToUser[_certificateId] == _owner;\n    }\n\n    function getCertificates(\n        address _user\n    ) public view returns (Skill[] memory) {\n        return userCertification[_user];\n    }\n}\n",
  "sourcePath": "/home/chyle/github/blockchain/contract/contracts/SkillCertificateRegistry.sol",
  "compiler": {
    "name": "solc",
    "version": "0.8.21+commit.d9974bed.Emscripten.clang"
  },
  "schemaVersion": "3.4.16",
  "updatedAt": "2024-12-21T10:46:52.700Z",
  "networkType": "ethereum",
  "devdoc": {
    "author": "Chyle Andrei Lee",
    "events": {
      "certificateIssued(address,string,address,uint256,bytes32)": {
        "details": "Explain to a developer any extra details",
        "params": {
          "issueDate": "The date the certificate is issued",
          "issuingAuthority": "The issuer of the certificate",
          "name": "The name of the certificate",
          "recipient": "The receiver of the certificate"
        }
      }
    },
    "kind": "dev",
    "methods": {
      "issueCertification(string,address)": {
        "params": {
          "_name": "Name of the certificate",
          "_user": "The person getting the certificate"
        }
      }
    },
    "title": "SkillCertificateRegistry",
    "version": 1
  },
  "userdoc": {
    "events": {
      "certificateIssued(address,string,address,uint256,bytes32)": {
        "notice": "Event when certificate has been issued"
      }
    },
    "kind": "user",
    "methods": {
      "issueCertification(string,address)": {
        "notice": "Issue a certificate"
      }
    },
    "notice": "A registry of all certificate and it's infromation",
    "version": 1
  }
}